:020000040000FA
:020000000528D1
:040002000034003492
:06000A008316031700300D
:1000100088000030890083160313003088002224F2
:10002000043088000816FD240812F52400308800EA
:100030000816FD240812F524203088000816FD2437
:100040000812F524203088000816FD240812F52433
:10005000203088000816FD240812F524203088007E
:100060000816FD240812F524203088000816FD2407
:100070000812F524203088000816FD240812F52403
:10008000203088000816FD240812F524203088004E
:100090000816FD240812F524203088000816FD24D7
:1000A0000812F524203088000816FD240812F524D3
:1000B000213088000816FD240812F524203088001D
:1000C0000816FD240812F524213088000816FD24A6
:1000D0000812F524203088000816FD240812F524A3
:1000E000213088000816FD240812F5242C308800E1
:1000F0000816FD240812F524043088000816FD2493
:100100000812F524083088000816FD240812F5248A
:10011000203088000816FD240812F52423308800BA
:100120000816FD240812F524203088000816FD2446
:100130000812F524253088000816FD240812F5243D
:10014000203088000816FD240812F5242730880086
:100150000816FD240812F524203088000816FD2416
:100160000812F524273088000816FD240812F5240B
:10017000203088000816FD240812F5242730880056
:100180000816FD240812F524203088000816FD24E6
:100190000812F524273088000816FD240812F524DB
:1001A000203088000816FD240812F5242F3088001E
:1001B0000816FD240812F524213088000816FD24B5
:1001C0000812F5242F3088000816FD240812F524A3
:1001D000053088000816FD240812F5240030880038
:1001E0000816FD240812F524213088000816FD2485
:1001F0000812F5242E3088000816FD240812F52474
:10020000213088000816FD240812F5242F308800BC
:100210000816FD240812F524213088000816FD2454
:100220000812F5242F3088000816FD240812F52442
:10023000213088000816FD240812F5242F3088008C
:100240000816FD240812F524213088000816FD2424
:100250000812F524203088000816FD240812F52421
:10026000213088000816FD240812F5242E3088005D
:100270000816FD240812F524213088000816FD24F4
:100280000812F524203088000816FD240812F524F1
:10029000213088000816FD240812F524203088003B
:1002A0000816FD240812F524053088000816FD24E0
:1002B0000812F524083088000816FD240812F524D9
:1002C000213088000816FD240812F5242D308800FE
:1002D0000816FD240812F524213088000816FD2494
:1002E0000812F5242F3088000816FD240812F52482
:1002F000203088000816FD240812F5242F308800CD
:100300000816FD240812F524203088000816FD2464
:100310000812F524273088000816FD240812F52459
:10032000203088000816FD240812F52423308800A8
:100330000816FD240812F524203088000816FD2434
:100340000812F524203088000816FD240812F52430
:10035000203088000816FD240812F524203088007B
:100360000816FD240812F524203088000816FD2404
:100370000812F524203088000816FD240812F52400
:10038000063088000816FD240812F5240030880085
:100390000816FD240812F524213088000816FD24D3
:1003A0000812F5242F3088000816FD240812F524C1
:1003B000213088000816FD240812F5242F3088000B
:1003C0000816FD240812F524213088000816FD24A3
:1003D0000812F5242F3088000816FD240812F52491
:1003E000213088000816FD240812F5242F308800DB
:1003F0000816FD240812F524213088000816FD2473
:100400000812F5242B3088000816FD240812F52464
:10041000213088000816FD240812F52422308800B7
:100420000816FD240812F524213088000816FD2442
:100430000812F524223088000816FD240812F5243D
:10044000213088000816FD240812F5242B3088007E
:100450000816FD240812F524063088000816FD242D
:100460000812F524083088000816FD240812F52427
:10047000213088000816FD240812F5242C3088004D
:100480000816FD240812F524213088000816FD24E2
:100490000812F524243088000816FD240812F524DB
:1004A000213088000816FD240812F5242030880029
:1004B0000816FD240812F524213088000816FD24B2
:1004C0000812F524203088000816FD240812F524AF
:1004D000203088000816FD240812F52420308800FA
:1004E0000816FD240812F524203088000816FD2483
:1004F0000812F524203088000816FD240812F5247F
:10050000203088000816FD240812F52420308800C9
:100510000816FD240812F524203088000816FD2452
:100520000812F524203088000816FD240812F5244E
:10053000073088000816FD240812F52400308800D2
:100540000816FD240812F524213088000816FD2421
:100550000812F5242F3088000816FD240812F5240F
:10056000213088000816FD240812F5242530880063
:100570000816FD240812F524213088000816FD24F1
:100580000812F5242F3088000816FD240812F524DF
:10059000213088000816FD240812F5242530880033
:1005A0000816FD240812F524213088000816FD24C1
:1005B0000812F5242F3088000816FD240812F524AF
:1005C000213088000816FD240812F5242530880003
:1005D0000816FD240812F524213088000816FD2491
:1005E0000812F5242F3088000816FD240812F5247F
:1005F000213088000816FD240812F52425308800D3
:100600000816FD240812F524073088000816FD247A
:100610000812F524083088000816FD240812F52475
:10062000213088000816FD240812F5242F30880098
:100630000816FD240812F524213088000816FD2430
:100640000812F524253088000816FD240812F52428
:10065000213088000816FD240812F5242F30880068
:100660000816FD240812F524213088000816FD2400
:100670000812F524253088000816FD240812F524F8
:10068000213088000816FD240812F5242F30880038
:100690000816FD240812F524213088000816FD24D0
:1006A0000812F5242F3088000816FD240812F524BE
:1006B000213088000816FD240812F5242B3088000C
:1006C0000816FD240812F524213088000816FD24A0
:1006D0000812F5242B3088000816FD240812F52492
:1006E0000D30D22406309D244D30D22407309D2475
:1006F0000030D22400309D2401309D2402309D24FE
:100700004030D22403309D2404309D2405309D24A4
:1007100012240030D22420309D2420309D244030EB
:10072000D22420309D2420309D240230D224003059
:100730009D2401309D2402309D244230D224033078
:100740009D2404309D2405309D2412240230D2249F
:1007500020309D2420309D2420309D244230D224FE
:1007600020309D2420309D2420309D240530D2242B
:1007700000309D2401309D2402309D244530D22438
:1007800003309D2404309D2405309D240830D2245C
:1007900052309D2441309D2457309D2452309D2459
:1007A00012240830D22420309D2420309D24203073
:1007B0009D2420309D2412240830D22452309D24C0
:1007C00041309D2457309D2452309D241A240830F6
:1007D000D22420309D2420309D2420309D242030A0
:1007E0009D2412240530D22420309D2420309D24C5
:1007F00020309D244530D22420309D2420309D245B
:1008000020309D24702B83120313FA30A000A00B1C
:10081000072C0800831203136430A1000324A10BEA
:100820000E2C0800831203133230A2000A24A20BFC
:10083000162C0800831203130430A3001224A30B08
:100840001E2C08008312031308120C2583120313B5
:10085000881283120313033088000816FD2408123F
:10086000F5248312031303300816FD240812FD2417
:1008700083120313033088000816FD240812F524A0
:1008800083120313023088000816FD240812F52491
:1008900083120313023088000816FD240812F52481
:1008A0000E3088000816FD240812F5248312031365
:1008B000003088000816FD240812F524083088004E
:1008C0000816FD240812F524831203130030880053
:1008D0000816FD240812F524013088000816FD24AE
:1008E0000812F52483120313003088000816FD2433
:1008F0000812F524063088000816FD240812F52495
:1009000083120313083088000816FD240812F5240A
:10091000003088000816FD240812F5248312031302
:10092000003088000816FD240812F5240C308800D9
:100930000816FD240812F5240800831203138816F4
:10094000A600260E0F39203E88000816FD24081246
:10095000F52426080F39203E88000816FD240812C9
:10096000F52408008312031388120030880008164B
:10097000FD240812F524013088000816FD24081211
:10098000F52408008312031388120030880008162B
:10099000FD240812F524023088000816FD240812F0
:1009A000F5240800831203138812A600260E0F39BF
:1009B000083E88000816FD240812F52426080F3981
:1009C00088000816FD240812F5240800831203137A
:1009D000A730A000A00BEA2C0800831203130230FA
:1009E000A500E624A50BF12C0800831203130D309B
:1009F000A400ED24A40BF92C080083120313643027
:100A0000A300A30B012D0800831203130330A200DF
:100A1000ED24A20B082D0800831203130F30A10050
:080A20000425A10B102D0800B4
:02400E00F2209E
:02401000FF3E71
:00000001FF
